:020000040000fa
:080000000002040000000000f2
:020000040000fa
:0400080030030000c1
:020000040000fa
:04000c0030030000bd
:020000040000fa
:0400100030030000b9
:020000040000fa
:0400140030030000b5
:020000040000fa
:0400180030030000b1
:020000040000fa
:04001c0030030000ad
:020000040000fa
:0400200030030000a9
:020000040000fa
:0400240030030000a5
:020000040000fa
:0400280030030000a1
:020000040000fa
:04002c00300300009d
:020000040000fa
:040030003003000099
:020000040000fa
:040034003003000095
:020000040000fa
:040038003003000091
:020000040000fa
:04003c00300300008d
:020000040000fa
:040040003003000089
:020000040000fa
:040044003003000085
:020000040000fa
:040048003003000081
:020000040000fa
:04004c00300300007d
:020000040000fa
:040050003003000079
:020000040000fa
:040054003003000075
:020000040000fa
:04005800fe020000a4
:020000040000fa
:04005c00300300006d
:020000040000fa
:040060003003000069
:020000040000fa
:040064003003000065
:020000040000fa
:040068003003000061
:020000040000fa
:04006c00300300005d
:020000040000fa
:040070003003000059
:020000040000fa
:040074003003000055
:020000040000fa
:040078003003000051
:020000040000fa
:04007c00300300004d
:020000040000fa
:040080003003000049
:020000040000fa
:040084003003000045
:020000040000fa
:040088003003000041
:020000040000fa
:04008c00300300003d
:020000040000fa
:040090003003000039
:020000040000fa
:040094003003000035
:020000040000fa
:040098003003000031
:020000040000fa
:04009c00300300002d
:020000040000fa
:0400a0003003000029
:020000040000fa
:0400a4003003000025
:020000040000fa
:0400a8003003000021
:020000040000fa
:0400ac00300300001d
:020000040000fa
:0400b0003003000019
:020000040000fa
:0400b4003003000015
:020000040000fa
:0400b8003003000011
:020000040000fa
:0400bc00300300000d
:020000040000fa
:0400c0003003000009
:020000040000fa
:0400c4003003000005
:020000040000fa
:0400c8003003000001
:020000040000fa
:0400cc0030030000fd
:020000040000fa
:0400d00030030000f9
:020000040000fa
:0400d40030030000f5
:020000040000fa
:0400d80030030000f1
:020000040000fa
:0400dc0030030000ed
:020000040000fa
:0400e00030030000e9
:020000040000fa
:0400e40030030000e5
:020000040000fa
:0400e80030030000e1
:020000040000fa
:0400ec0030030000dd
:020000040000fa
:0400f00030030000d9
:020000040000fa
:0400f40030030000d5
:020000040000fa
:0400f80030030000d1
:020000040000fa
:0400fc0030030000cd
:020000040000fa
:0401000030030000c8
:020000040000fa
:0401040030030000c4
:020000040000fa
:0401080030030000c0
:020000040000fa
:04010c0030030000bc
:020000040000fa
:0401100030030000b8
:020000040000fa
:0401140030030000b4
:020000040000fa
:0401180030030000b0
:020000040000fa
:04011c0030030000ac
:020000040000fa
:0401200030030000a8
:020000040000fa
:0401240030030000a4
:020000040000fa
:0401280030030000a0
:020000040000fa
:04012c00300300009c
:020000040000fa
:040130003003000098
:020000040000fa
:040134003003000094
:020000040000fa
:040138003003000090
:020000040000fa
:04013c00300300008c
:020000040000fa
:040140003003000088
:020000040000fa
:040144003003000084
:020000040000fa
:040148003003000080
:020000040000fa
:04014c00300300007c
:020000040000fa
:040150003003000078
:020000040000fa
:040154003003000074
:020000040000fa
:040158003003000070
:020000040000fa
:04015c00300300006c
:020000040000fa
:040160003003000068
:020000040000fa
:040164003003000064
:020000040000fa
:040168003003000060
:020000040000fa
:04016c00300300005c
:020000040000fa
:040170003003000058
:020000040000fa
:040174003003000054
:020000040000fa
:040178003003000050
:020000040000fa
:04017c00300300004c
:020000040000fa
:040180003003000048
:020000040000fa
:040184003003000044
:020000040000fa
:040188003003000040
:020000040000fa
:04018c00300300003c
:020000040000fa
:040190003003000038
:020000040000fa
:040194003003000034
:020000040000fa
:040198003003000030
:020000040000fa
:04019c00300300002c
:020000040000fa
:0401a0003003000028
:020000040000fa
:0401a4003003000024
:020000040000fa
:0401a8003003000020
:020000040000fa
:0401ac00300300001c
:020000040000fa
:0401b0003003000018
:020000040000fa
:0401b4003003000014
:020000040000fa
:0401b8003003000010
:020000040000fa
:0401bc00300300000c
:020000040000fa
:0401c0003003000008
:020000040000fa
:0401c4003003000004
:020000040000fa
:0401c8003003000000
:020000040000fa
:0401cc0030030000fc
:020000040000fa
:0401d00030030000f8
:020000040000fa
:0401d40030030000f4
:020000040000fa
:0401d80030030000f0
:020000040000fa
:0401dc0030030000ec
:020000040000fa
:0401e00030030000e8
:020000040000fa
:0401e40030030000e4
:020000040000fa
:0401e80030030000e0
:020000040000fa
:0401ec0030030000dc
:020000040000fa
:0401f00030030000d8
:020000040000fa
:0401f40030030000d4
:020000040000fa
:0401f80030030000d0
:020000040000fa
:0401fc0030030000cc
:020000040000fa
:0402000030030000c7
:020000040000fa
:0402040030030000c3
:020000040000fa
:0402080030030000bf
:020000040000fa
:04020c0030030000bb
:020000040000fa
:0402100030030000b7
:020000040000fa
:0402140030030000b3
:020000040000fa
:0402180030030000af
:020000040000fa
:04021c0030030000ab
:020000040000fa
:0402200030030000a7
:020000040000fa
:0402240030030000a3
:020000040000fa
:04022800300300009f
:020000040000fa
:04022c00300300009b
:020000040000fa
:040230003003000097
:020000040000fa
:040234003003000093
:020000040000fa
:04023800300300008f
:020000040000fa
:04023c00300300008b
:020000040000fa
:040240003003000087
:020000040000fa
:040244003003000083
:020000040000fa
:04024800300300007f
:020000040000fa
:04024c00300300007b
:020000040000fa
:040250003003000077
:020000040000fa
:040254003003000073
:020000040000fa
:04025800300300006f
:020000040000fa
:04025c00300300006b
:020000040000fa
:040260003003000067
:020000040000fa
:040264003003000063
:020000040000fa
:04026800300300005f
:020000040000fa
:04026c00300300005b
:020000040000fa
:040270003003000057
:020000040000fa
:040274003003000053
:020000040000fa
:04027800300300004f
:020000040000fa
:04027c00300300004b
:020000040000fa
:040280003003000047
:020000040000fa
:040284003003000043
:020000040000fa
:04028800300300003f
:020000040000fa
:04028c00300300003b
:020000040000fa
:040290003003000037
:020000040000fa
:040294003003000033
:020000040000fa
:04029800300300002f
:020000040000fa
:04029c00300300002b
:020000040000fa
:0402a0003003000027
:020000040000fa
:0402a4003003000023
:020000040000fa
:0402a800300300001f
:020000040000fa
:0402ac00300300001b
:020000040000fa
:0402b0003003000017
:020000040000fa
:0402b4003003000013
:020000040000fa
:0402b800300300000f
:020000040000fa
:0402bc00300300000b
:020000040000fa
:0402c0003003000007
:020000040000fa
:0402c4003003000003
:020000040000fa
:0402c80030030000ff
:020000040000fa
:0402cc0030030000fb
:020000040000fa
:0402d00030030000f7
:020000040000fa
:0402d40030030000f3
:020000040000fa
:0402d80030030000ef
:020000040000fa
:0402dc0030030000eb
:020000040000fa
:0402e00030030000e7
:020000040000fa
:0402e40030030000e3
:020000040000fa
:0402e80030030000df
:020000040000fa
:0402ec0030030000db
:020000040000fa
:0402f00030030000d7
:020000040000fa
:0402f40030030000d3
:020000040000fa
:0402f80030030000cf
:020000040000fa
:0402fc0030030000cb
:020000040000fa
:0403000030030000c6
:020000040000fa
:0403040030030000c2
:020000040000fa
:0403080030030000be
:020000040000fa
:04030c0030030000ba
:020000040000fa
:0403100030030000b6
:020000040000fa
:0403140030030000b2
:020000040000fa
:0403180030030000ae
:020000040000fa
:04031c0030030000aa
:020000040000fa
:0403200030030000a6
:020000040000fa
:0403240030030000a2
:020000040000fa
:100400008f0021000eff27000e0188000000000071
:10041000000020000000e000020032000001200087
:1004200020028800140007008f0007000000e00091
:1004300003003a00605e2000010020000200370047
:100440000000200001002000810f70000100320038
:100450000f000700000020000000e0000200320052
:10046000000002000000000036030200000000004f
:100470000040da000000fe00200020000000e00044
:1004800002003200100020009001880000000600e9
:10049000a1028800800478000000eb001f003700f4
:1004a000e284440054a0b4009905ba00e2844400f8
:1004b00054a0b4009906ba00e284440054a0b400e9
:1004c0000006eb00476fde00fd07b200ae018800ba
:1004d000636ce10003003a000ad801000000eb0061
:1004e0000e003700606ce10008003a00004deb00a0
:1004f0000a05e800020039003420ec000af0a000f0
:100500008b05e900f9ff3e00040037006168e10057
:10051000010032000086eb000b00070019c7ba008b
:100520001905ba000e04e00003003a000a00e000da
:10053000dbff3a0000000600fe07b200ae028800b2
:100540008a047800f5ff37000cd0a300e20f4d00bd
:100550001c003b0089027800354dba000a05e8000e
:10056000020039003420ec000af0a0008b05e900fd
:100570000f003200254dba000a05e80002003900dc
:100580003420ec000af0a0008b05e90008003200de
:100590000c00e0000600320015cdba000a05e800a4
:1005a000020039003420ec000af0a0008b05e900bd
:1005b0008984e80054a0b4000b00e000e2ff3a0098
:1005c000000006009902ba00055d78008b05e9007d
:1005d000f7ff3200c82ade00055d78008b05e900d0
:1005e000f3ff32000c00e000f1ff320019ddba0029
:1005f000eeff3700a0050400000000003600f80000
:10060000809fbe00829fbe00849fbe00869fbe006a
:100610003200f8003400f80010002000a00188002b
:100620001000200000d0fe000000fa000188a900a0
:1006300000c4290001002000560107000080fa00d4
:100640003400f9003200f9004f03be004f02be0033
:100650004f01be004f00be003600f900004006000a
:0c0660000040da000000fe000000050071
:020000040000fa
:10066c000000fa00574ea800554ea9001fcea80056
:10067c001faea900016da900e0c2b30028edb700c0
:10068c00616c8000f00f2c00008060000080a000e6
:10069c00606c8800016da800900120000012880099
:1006ac00c3e8a8002188a800c111800000ff2f001a
:1006bc0000806000c01188003a42a900d11180006e
:1006cc00f0fc2f0000806000d0118800d111800058
:1006dc00c0ff2f0000806000d0118800f111800055
:1006ec00f0ff280000806000f0118800f1118000fc
:1006fc00f08f2f0000806000f011880039e2a80014
:10070c0038a2a8003882a80001e2a900200120002c
:10071c008010880001e2a80000fa200001002000ef
:10072c0019010700691009000000000010062000e4
:10073c0040128800008823001100200012010700dd
:10074c0042c0b30051c0b30030c5b3006b0007000a
:10075c0042c2b30051c0b30030c5b30067000700fc
:10076c0002c4b300a1c2b30030c5b30063000700dc
:10077c0002c4b300b1c2b30030c5b3005f000700c0
:10078c00c2cab30051c0b30030c5b3005b00070050
:10079c00010037000000000031c2b30030c5b300c7
:1007ac009000070002f0b70011c2b30030c5b300cf
:1007bc008c00070000f0b70021c2b30030c5b300b5
:1007cc008800070001f0b70002d0bf000000fb005a
:1007dc00640060000000e000030032001000200004
:1007ec0020808800010037000430ef00208080005a
:1007fc000000e0000f00320000d0bf00e14f5000bd
:10080c0001003a000070ef0001d0bf00e14f500032
:10081c0002003a0020c0b30001f0b700025a2000d9
:10082c0001d0bf008000fb0000d0bf000000fb0027
:10083c0002000100c17280000040200000806000b6
:10084c000000e000d3ff320010c0b30006f0b70088
:10085c0006d0bf000000fb0040128800007c220084
:10086c0091002000c8000700cbff37000000fa0001
:10087c0005e2a8000002a8000000000000108000a3
:10088c00610060000000e000fcff3a001000200056
:10089c000080fa00000006000000fa000062a900c7
:1008ac000042a800000000000010800064006000fe
:1008bc000000e000fcff3a0000fa200001002000dc
:1008cc00b10007000080fa00000006000000fa00ea
:1008dc000022a800000000000010800062006000f0
:1008ec000000e000fcff3a0000fa200001002000ac
:1008fc00a50007000080fa00000006000400fa00c2
:10090c00004f78000e00e800014878000e80e800e7
:10091c0002487800d5ff07001e80fb000000400055
:10092c000040780014e2b7000000000021108000a5
:10093c0000002800008060000000e000fbff3a008f
:10094c0000000000211080000000240000806000e6
:10095c000000e000fbff3a000e00e80010417800b8
:10096c004121200082487800000000002110800006
:10097c0000002800008060000000e000fbff3a004f
:10098c0000000000211080000000240000806000a6
:10099c000000e000fbff3a000e80e80010417800f8
:1009ac0041212000824878000000000021108000c6
:1009bc0000002800008060000000e000fbff3a000f
:1009cc000000000021108000000024000080600066
:1009dc000000e000fbff3a00afff07000080fa00c8
:1009ec00000006000400fa000e81e80000497800bf
:1009fc0063004700014878009cff07000e80e80068
:100a0c00104078000080fb0000004000004078009f
:100a1c0014e2b70000000000211080000000280044
:100a2c00008060000000e000fbff3a0000000000c6
:100a3c002110800000002400008060000000e00015
:100a4c00fbff3a0063004700104178004121200071
:100a5c00824878000000000021108000000028006f
:100a6c00008060000000e000fbff3a000000000086
:100a7c002110800000002400008060000000e000d5
:100a8c00fbff3a0091ff07000e80e8001040780051
:100a9c000080fb0000004000004078000004a00033
:100aac0014e2b700000000002110800000002800b4
:100abc00008060000000e000fbff3a000000000036
:100acc002110800000002400008060000000e00085
:100adc00fbff3a000062a80000000000201080001c
:100aec00620060000000e000fcff3200000000002b
:100afc0000108000680060000000e000fcff3a007d
:100b0c0000a2a8000082a8000000000000108000d5
:100b1c00700060000000e000fcff3a005eff070080
:100b2c00c0108000004f78001e4078000080fa0052
:100b3c00000006000200fa00004f78000e00e800ea
:100b4c000148780000882300110020000e000700e7
:100b5c001e80fb004012880000882300110020003a
:100b6c00090007000e00e800104078000080fb0030
:100b7c0040128800008823001100200002000700aa
:080b8c000080fa0000000600e1
:020000040000fa
:100b9400f03fb1000180b10006003500ee0309000a
:100ba40000000000403fb1000180b100fbff3d00a8
:100bb4001000b000203fb0000200350000800900a2
:080bc400000000000000060023
:020000040000fa
:100bcc000010000008000000800000000000000081
:020000040000fa
:020000040005f5
:047e3000f8ffff0058
:020000040000fa
:020000040005f5
:047e3800beffff008a
:020000040000fa
:020000040005f5
:047e5000deffff0052
:020000040000fa
:020000040005f5
:047e8000f7fcff000c
:00000001FF
